:030000000200A15A
:0E000B00D53219753204B2781200DED5330EEC
:0E001900753332D53408753414153502002ABB
:100027000200A07800A9357A0A1200FD8F31E53168
:0F00370093F5311200FD8F30E53093F530E5354C
:0F004600B40118C290C292C295C297C2B0C2B2A2
:0E005500C2B5C2B7D291D296D2B1D2B6E535BD
:10006300B4003AB25020501AD290D297D2B0D2B73D
:10007300C292C295C2B2C2B5C291C296C2B1C2B651
:100083008018D292D295D2B2D2B5C290C297C2B0E2
:0E009300C2B7C291C296C2B1C2B675351E3256
:0E00A10075A882758902758C06758A06D28C48
:0F00AF0075320475333275341475351E90013473
:1000BE0075304F75313FD290C291C292C295C296A1
:1000CE00D297D2B0C2B1C2B2C2B5C2B6D2B780FE5A
:0F00DE0075A0FF20780D853080C2A0C2A2C2A4F9
:1000ED00C2A6800B853180C2A1C2A3C2A5C2A72220
:1000FD007D007B1112011EEDB502057D00D3800B35
:10010D0020D707C3ED9AFDD38001C3DBE77D00C384
:10011D0022C0D0BB0102EDFFD0D0E933F9E833F8AE
:10012D00ED33FDEC33FC223F065B4F666D7D077FA3
:01013D006F52
:00000001FF
